{
  "_format": "hh-sol-artifact-1",
  "contractName": "NFTCollection",
  "sourceName": "contracts/NFT.sol",
  "abi": [
    {
      "inputs": [],
      "stateMutability": "nonpayable",
      "type": "constructor"
    },
    {
      "anonymous": false,
      "inputs": [
        {
          "indexed": true,
          "internalType": "address",
          "name": "owner",
          "type": "address"
        },
        {
          "indexed": true,
          "internalType": "address",
          "name": "approved",
          "type": "address"
        },
        {
          "indexed": true,
          "internalType": "uint256",
          "name": "tokenId",
          "type": "uint256"
        }
      ],
      "name": "Approval",
      "type": "event"
    },
    {
      "anonymous": false,
      "inputs": [
        {
          "indexed": true,
          "internalType": "address",
          "name": "owner",
          "type": "address"
        },
        {
          "indexed": true,
          "internalType": "address",
          "name": "operator",
          "type": "address"
        },
        {
          "indexed": false,
          "internalType": "bool",
          "name": "approved",
          "type": "bool"
        }
      ],
      "name": "ApprovalForAll",
      "type": "event"
    },
    {
      "anonymous": false,
      "inputs": [
        {
          "indexed": true,
          "internalType": "address",
          "name": "from",
          "type": "address"
        },
        {
          "indexed": true,
          "internalType": "address",
          "name": "to",
          "type": "address"
        },
        {
          "indexed": true,
          "internalType": "uint256",
          "name": "tokenId",
          "type": "uint256"
        }
      ],
      "name": "Transfer",
      "type": "event"
    },
    {
      "inputs": [
        {
          "internalType": "address",
          "name": "to",
          "type": "address"
        },
        {
          "internalType": "uint256",
          "name": "tokenId",
          "type": "uint256"
        }
      ],
      "name": "approve",
      "outputs": [],
      "stateMutability": "nonpayable",
      "type": "function"
    },
    {
      "inputs": [
        {
          "internalType": "address",
          "name": "owner",
          "type": "address"
        }
      ],
      "name": "balanceOf",
      "outputs": [
        {
          "internalType": "uint256",
          "name": "",
          "type": "uint256"
        }
      ],
      "stateMutability": "view",
      "type": "function"
    },
    {
      "inputs": [
        {
          "internalType": "uint256",
          "name": "tokenId",
          "type": "uint256"
        }
      ],
      "name": "getApproved",
      "outputs": [
        {
          "internalType": "address",
          "name": "",
          "type": "address"
        }
      ],
      "stateMutability": "view",
      "type": "function"
    },
    {
      "inputs": [
        {
          "internalType": "uint256",
          "name": "_id",
          "type": "uint256"
        }
      ],
      "name": "getTrack",
      "outputs": [
        {
          "internalType": "address[]",
          "name": "",
          "type": "address[]"
        }
      ],
      "stateMutability": "view",
      "type": "function"
    },
    {
      "inputs": [
        {
          "internalType": "address",
          "name": "owner",
          "type": "address"
        },
        {
          "internalType": "address",
          "name": "operator",
          "type": "address"
        }
      ],
      "name": "isApprovedForAll",
      "outputs": [
        {
          "internalType": "bool",
          "name": "",
          "type": "bool"
        }
      ],
      "stateMutability": "view",
      "type": "function"
    },
    {
      "inputs": [],
      "name": "name",
      "outputs": [
        {
          "internalType": "string",
          "name": "",
          "type": "string"
        }
      ],
      "stateMutability": "view",
      "type": "function"
    },
    {
      "inputs": [
        {
          "internalType": "uint256",
          "name": "tokenId",
          "type": "uint256"
        }
      ],
      "name": "ownerOf",
      "outputs": [
        {
          "internalType": "address",
          "name": "",
          "type": "address"
        }
      ],
      "stateMutability": "view",
      "type": "function"
    },
    {
      "inputs": [
        {
          "internalType": "string",
          "name": "_tokenURI",
          "type": "string"
        }
      ],
      "name": "safeMint",
      "outputs": [],
      "stateMutability": "nonpayable",
      "type": "function"
    },
    {
      "inputs": [
        {
          "internalType": "address",
          "name": "from",
          "type": "address"
        },
        {
          "internalType": "address",
          "name": "to",
          "type": "address"
        },
        {
          "internalType": "uint256",
          "name": "tokenId",
          "type": "uint256"
        }
      ],
      "name": "safeTransferFrom",
      "outputs": [],
      "stateMutability": "nonpayable",
      "type": "function"
    },
    {
      "inputs": [
        {
          "internalType": "address",
          "name": "from",
          "type": "address"
        },
        {
          "internalType": "address",
          "name": "to",
          "type": "address"
        },
        {
          "internalType": "uint256",
          "name": "tokenId",
          "type": "uint256"
        },
        {
          "internalType": "bytes",
          "name": "_data",
          "type": "bytes"
        }
      ],
      "name": "safeTransferFrom",
      "outputs": [],
      "stateMutability": "nonpayable",
      "type": "function"
    },
    {
      "inputs": [
        {
          "internalType": "address",
          "name": "operator",
          "type": "address"
        },
        {
          "internalType": "bool",
          "name": "approved",
          "type": "bool"
        }
      ],
      "name": "setApprovalForAll",
      "outputs": [],
      "stateMutability": "nonpayable",
      "type": "function"
    },
    {
      "inputs": [
        {
          "internalType": "address",
          "name": "_address",
          "type": "address"
        },
        {
          "internalType": "uint256",
          "name": "_id",
          "type": "uint256"
        }
      ],
      "name": "setTrack",
      "outputs": [
        {
          "internalType": "bool",
          "name": "",
          "type": "bool"
        }
      ],
      "stateMutability": "nonpayable",
      "type": "function"
    },
    {
      "inputs": [
        {
          "internalType": "bytes4",
          "name": "interfaceId",
          "type": "bytes4"
        }
      ],
      "name": "supportsInterface",
      "outputs": [
        {
          "internalType": "bool",
          "name": "",
          "type": "bool"
        }
      ],
      "stateMutability": "view",
      "type": "function"
    },
    {
      "inputs": [],
      "name": "symbol",
      "outputs": [
        {
          "internalType": "string",
          "name": "",
          "type": "string"
        }
      ],
      "stateMutability": "view",
      "type": "function"
    },
    {
      "inputs": [
        {
          "internalType": "uint256",
          "name": "index",
          "type": "uint256"
        }
      ],
      "name": "tokenByIndex",
      "outputs": [
        {
          "internalType": "uint256",
          "name": "",
          "type": "uint256"
        }
      ],
      "stateMutability": "view",
      "type": "function"
    },
    {
      "inputs": [
        {
          "internalType": "address",
          "name": "owner",
          "type": "address"
        },
        {
          "internalType": "uint256",
          "name": "index",
          "type": "uint256"
        }
      ],
      "name": "tokenOfOwnerByIndex",
      "outputs": [
        {
          "internalType": "uint256",
          "name": "",
          "type": "uint256"
        }
      ],
      "stateMutability": "view",
      "type": "function"
    },
    {
      "inputs": [
        {
          "internalType": "uint256",
          "name": "tokenId",
          "type": "uint256"
        }
      ],
      "name": "tokenURI",
      "outputs": [
        {
          "internalType": "string",
          "name": "",
          "type": "string"
        }
      ],
      "stateMutability": "view",
      "type": "function"
    },
    {
      "inputs": [
        {
          "internalType": "uint256",
          "name": "",
          "type": "uint256"
        }
      ],
      "name": "tokenURIs",
      "outputs": [
        {
          "internalType": "string",
          "name": "",
          "type": "string"
        }
      ],
      "stateMutability": "view",
      "type": "function"
    },
    {
      "inputs": [],
      "name": "totalSupply",
      "outputs": [
        {
          "internalType": "uint256",
          "name": "",
          "type": "uint256"
        }
      ],
      "stateMutability": "view",
      "type": "function"
    },
    {
      "inputs": [
        {
          "internalType": "address",
          "name": "from",
          "type": "address"
        },
        {
          "internalType": "address",
          "name": "to",
          "type": "address"
        },
        {
          "internalType": "uint256",
          "name": "tokenId",
          "type": "uint256"
        }
      ],
      "name": "transferFrom",
      "outputs": [],
      "stateMutability": "nonpayable",
      "type": "function"
    }
  ],
  "bytecode": "0x60806040523480156200001157600080fd5b50604080518082018252600e81526d36aa219021b7b63632b1ba34b7b760911b6020808301918252835180850190945260038452626d544360e81b908401528151919291620000639160009162000082565b5080516200007990600190602084019062000082565b50505062000165565b828054620000909062000128565b90600052602060002090601f016020900481019282620000b45760008555620000ff565b82601f10620000cf57805160ff1916838001178555620000ff565b82800160010185558215620000ff579182015b82811115620000ff578251825591602001919060010190620000e2565b506200010d92915062000111565b5090565b5b808211156200010d576000815560010162000112565b600181811c908216806200013d57607f821691505b602082108114156200015f57634e487b7160e01b600052602260045260246000fd5b50919050565b611b3180620001756000396000f3fe608060405234801561001057600080fd5b506004361061012c5760003560e01c80636352211e116100ad578063a22cb46511610071578063a22cb46514610280578063af3585fe14610293578063b88d4fde146102a6578063c87b56dd146102b9578063e985e9c5146102cc57600080fd5b80636352211e1461022c578063695850fb1461023f5780636c8b703f1461025257806370a082311461026557806395d89b411461027857600080fd5b806323b872dd116100f457806323b872dd146101c05780632f745c59146101d357806342842e0e146101e65780634f6ccce7146101f9578063629058ca1461020c57600080fd5b806301ffc9a71461013157806306fdde0314610159578063081812fc1461016e578063095ea7b31461019957806318160ddd146101ae575b600080fd5b61014461013f366004611802565b610308565b60405190151581526020015b60405180910390f35b610161610319565b604051610150919061196a565b61018161017c366004611880565b6103ab565b6040516001600160a01b039091168152602001610150565b6101ac6101a73660046117d9565b610445565b005b6008545b604051908152602001610150565b6101ac6101ce3660046116eb565b61055b565b6101b26101e13660046117d9565b61058c565b6101ac6101f43660046116eb565b610622565b6101b2610207366004611880565b61063d565b61021f61021a366004611880565b6106de565b604051610150919061191d565b61018161023a366004611880565b610755565b6101ac61024d36600461183a565b6107cc565b610161610260366004611880565b6108ee565b6101b2610273366004611698565b61099a565b610161610a21565b6101ac61028e36600461179f565b610a30565b6101446102a13660046117d9565b610af5565b6101ac6102b4366004611726565b610b37565b6101616102c7366004611880565b610b6f565b6101446102da3660046116b9565b6001600160a01b03918216600090815260056020908152604080832093909416825291909152205460ff1690565b600061031382610c8c565b92915050565b60606000805461032890611a7b565b80601f016020809104026020016040519081016040528092919081815260200182805461035490611a7b565b80156103a15780601f10610376576101008083540402835291602001916103a1565b820191906000526020600020905b81548152906001019060200180831161038457829003601f168201915b5050505050905090565b6000818152600260205260408120546001600160a01b03166104295760405162461bcd60e51b815260206004820152602c60248201527f4552433732313a20617070726f76656420717565727920666f72206e6f6e657860448201526b34b9ba32b73a103a37b5b2b760a11b60648201526084015b60405180910390fd5b506000908152600460205260409020546001600160a01b031690565b600061045082610755565b9050806001600160a01b0316836001600160a01b031614156104be5760405162461bcd60e51b815260206004820152602160248201527f4552433732313a20617070726f76616c20746f2063757272656e74206f776e656044820152603960f91b6064820152608401610420565b336001600160a01b03821614806104da57506104da81336102da565b61054c5760405162461bcd60e51b815260206004820152603860248201527f4552433732313a20617070726f76652063616c6c6572206973206e6f74206f7760448201527f6e6572206e6f7220617070726f76656420666f7220616c6c00000000000000006064820152608401610420565b6105568383610cb1565b505050565b6105653382610d1f565b6105815760405162461bcd60e51b8152600401610420906119cf565b610556838383610e16565b60006105978361099a565b82106105f95760405162461bcd60e51b815260206004820152602b60248201527f455243373231456e756d657261626c653a206f776e657220696e646578206f7560448201526a74206f6620626f756e647360a81b6064820152608401610420565b506001600160a01b03919091166000908152600660209081526040808320938352929052205490565b61055683838360405180602001604052806000815250610b37565b600061064860085490565b82106106ab5760405162461bcd60e51b815260206004820152602c60248201527f455243373231456e756d657261626c653a20676c6f62616c20696e646578206f60448201526b7574206f6620626f756e647360a01b6064820152608401610420565b600882815481106106cc57634e487b7160e01b600052603260045260246000fd5b90600052602060002001549050919050565b606080600d600084815260200190815260200160002080548060200260200160405190810160405280929190818152602001828054801561074857602002820191906000526020600020905b81546001600160a01b0316815260019091019060200180831161072a575b5093979650505050505050565b6000818152600260205260408120546001600160a01b0316806103135760405162461bcd60e51b815260206004820152602960248201527f4552433732313a206f776e657220717565727920666f72206e6f6e657869737460448201526832b73a103a37b5b2b760b91b6064820152608401610420565b600b816040516107dc91906118c4565b9081526040519081900360200190205460ff161561083c5760405162461bcd60e51b815260206004820152601e60248201527f54686520746f6b656e205552492073686f756c6420626520756e6971756500006044820152606401610420565b600a8054600181018255600091909152815161087f917fc65a7bb8d6351c1cf70c95a316cc6a92839c986682d98bc35f958f4883f9d2a80190602084019061156d565b50600a546000818152600c6020908152604090912083516108a29285019061156d565b506108ad3382610af5565b506108b83382610fc1565b6001600b836040516108ca91906118c4565b908152604051908190036020019020805491151560ff199092169190911790555050565b600a81815481106108fe57600080fd5b90600052602060002001600091509050805461091990611a7b565b80601f016020809104026020016040519081016040528092919081815260200182805461094590611a7b565b80156109925780601f1061096757610100808354040283529160200191610992565b820191906000526020600020905b81548152906001019060200180831161097557829003601f168201915b505050505081565b60006001600160a01b038216610a055760405162461bcd60e51b815260206004820152602a60248201527f4552433732313a2062616c616e636520717565727920666f7220746865207a65604482015269726f206164647265737360b01b6064820152608401610420565b506001600160a01b031660009081526003602052604090205490565b60606001805461032890611a7b565b6001600160a01b038216331415610a895760405162461bcd60e51b815260206004820152601960248201527f4552433732313a20617070726f766520746f2063616c6c6572000000000000006044820152606401610420565b3360008181526005602090815260408083206001600160a01b03871680855290835292819020805460ff191686151590811790915590519081529192917f17307eab39ab6107e8899845ad3d59bd9653f200f220920489ca2b5937696c31910160405180910390a35050565b6000818152600d602090815260408220805460018181018355918452919092200180546001600160a01b0385166001600160a01b031990911617905592915050565b610b413383610d1f565b610b5d5760405162461bcd60e51b8152600401610420906119cf565b610b6984848484610fdf565b50505050565b6000818152600260205260409020546060906001600160a01b0316610bee5760405162461bcd60e51b815260206004820152602f60248201527f4552433732314d657461646174613a2055524920717565727920666f72206e6f60448201526e3732bc34b9ba32b73a103a37b5b2b760891b6064820152608401610420565b6000828152600c602052604090208054610c0790611a7b565b80601f0160208091040260200160405190810160405280929190818152602001828054610c3390611a7b565b8015610c805780601f10610c5557610100808354040283529160200191610c80565b820191906000526020600020905b815481529060010190602001808311610c6357829003601f168201915b50505050509050919050565b60006001600160e01b0319821663780e9d6360e01b1480610313575061031382611012565b600081815260046020526040902080546001600160a01b0319166001600160a01b0384169081179091558190610ce682610755565b6001600160a01b03167f8c5be1e5ebec7d5bd14f71427d1e84f3dd0314c0f7b2291e5b200ac8c7c3b92560405160405180910390a45050565b6000818152600260205260408120546001600160a01b0316610d985760405162461bcd60e51b815260206004820152602c60248201527f4552433732313a206f70657261746f7220717565727920666f72206e6f6e657860448201526b34b9ba32b73a103a37b5b2b760a11b6064820152608401610420565b6000610da383610755565b9050806001600160a01b0316846001600160a01b03161480610dde5750836001600160a01b0316610dd3846103ab565b6001600160a01b0316145b80610e0e57506001600160a01b0380821660009081526005602090815260408083209388168352929052205460ff165b949350505050565b826001600160a01b0316610e2982610755565b6001600160a01b031614610e915760405162461bcd60e51b815260206004820152602960248201527f4552433732313a207472616e73666572206f6620746f6b656e2074686174206960448201526839903737ba1037bbb760b91b6064820152608401610420565b6001600160a01b038216610ef35760405162461bcd60e51b8152602060048201526024808201527f4552433732313a207472616e7366657220746f20746865207a65726f206164646044820152637265737360e01b6064820152608401610420565b610efe838383611062565b610f09600082610cb1565b6001600160a01b0383166000908152600360205260408120805460019290610f32908490611a38565b90915550506001600160a01b0382166000908152600360205260408120805460019290610f60908490611a20565b909155505060008181526002602052604080822080546001600160a01b0319166001600160a01b0386811691821790925591518493918716917fddf252ad1be2c89b69c2b068fc378daa952ba7f163c4a11628f55a4df523b3ef91a4505050565b610fdb82826040518060200160405280600081525061106d565b5050565b610fea848484610e16565b610ff6848484846110a0565b610b695760405162461bcd60e51b81526004016104209061197d565b60006001600160e01b031982166380ac58cd60e01b148061104357506001600160e01b03198216635b5e139f60e01b145b8061031357506301ffc9a760e01b6001600160e01b0319831614610313565b6105568383836111ad565b6110778383611265565b61108460008484846110a0565b6105565760405162461bcd60e51b81526004016104209061197d565b60006001600160a01b0384163b156111a257604051630a85bd0160e11b81526001600160a01b0385169063150b7a02906110e49033908990889088906004016118e0565b602060405180830381600087803b1580156110fe57600080fd5b505af192505050801561112e575060408051601f3d908101601f1916820190925261112b9181019061181e565b60015b611188573d80801561115c576040519150601f19603f3d011682016040523d82523d6000602084013e611161565b606091505b5080516111805760405162461bcd60e51b81526004016104209061197d565b805181602001fd5b6001600160e01b031916630a85bd0160e11b149050610e0e565b506001949350505050565b6001600160a01b0383166112085761120381600880546000838152600960205260408120829055600182018355919091527ff3f7a9fe364faab93b216da50a3214154f22a0a2b415b23a84c8169e8b636ee30155565b61122b565b816001600160a01b0316836001600160a01b03161461122b5761122b83826113b3565b6001600160a01b0382166112425761055681611450565b826001600160a01b0316826001600160a01b031614610556576105568282611529565b6001600160a01b0382166112bb5760405162461bcd60e51b815260206004820181905260248201527f4552433732313a206d696e7420746f20746865207a65726f20616464726573736044820152606401610420565b6000818152600260205260409020546001600160a01b0316156113205760405162461bcd60e51b815260206004820152601c60248201527f4552433732313a20746f6b656e20616c7265616479206d696e746564000000006044820152606401610420565b61132c60008383611062565b6001600160a01b0382166000908152600360205260408120805460019290611355908490611a20565b909155505060008181526002602052604080822080546001600160a01b0319166001600160a01b03861690811790915590518392907fddf252ad1be2c89b69c2b068fc378daa952ba7f163c4a11628f55a4df523b3ef908290a45050565b600060016113c08461099a565b6113ca9190611a38565b60008381526007602052604090205490915080821461141d576001600160a01b03841660009081526006602090815260408083208584528252808320548484528184208190558352600790915290208190555b5060009182526007602090815260408084208490556001600160a01b039094168352600681528383209183525290812055565b60085460009061146290600190611a38565b6000838152600960205260408120546008805493945090928490811061149857634e487b7160e01b600052603260045260246000fd5b9060005260206000200154905080600883815481106114c757634e487b7160e01b600052603260045260246000fd5b600091825260208083209091019290925582815260099091526040808220849055858252812055600880548061150d57634e487b7160e01b600052603160045260246000fd5b6001900381819060005260206000200160009055905550505050565b60006115348361099a565b6001600160a01b039093166000908152600660209081526040808320868452825280832085905593825260079052919091209190915550565b82805461157990611a7b565b90600052602060002090601f01602090048101928261159b57600085556115e1565b82601f106115b457805160ff19168380011785556115e1565b828001600101855582156115e1579182015b828111156115e15782518255916020019190600101906115c6565b506115ed9291506115f1565b5090565b5b808211156115ed57600081556001016115f2565b600067ffffffffffffffff8084111561162157611621611acc565b604051601f8501601f19908116603f0116810190828211818310171561164957611649611acc565b8160405280935085815286868601111561166257600080fd5b858560208301376000602087830101525050509392505050565b80356001600160a01b038116811461169357600080fd5b919050565b6000602082840312156116a9578081fd5b6116b28261167c565b9392505050565b600080604083850312156116cb578081fd5b6116d48361167c565b91506116e26020840161167c565b90509250929050565b6000806000606084860312156116ff578081fd5b6117088461167c565b92506117166020850161167c565b9150604084013590509250925092565b6000806000806080858703121561173b578081fd5b6117448561167c565b93506117526020860161167c565b925060408501359150606085013567ffffffffffffffff811115611774578182fd5b8501601f81018713611784578182fd5b61179387823560208401611606565b91505092959194509250565b600080604083850312156117b1578182fd5b6117ba8361167c565b9150602083013580151581146117ce578182fd5b809150509250929050565b600080604083850312156117eb578182fd5b6117f48361167c565b946020939093013593505050565b600060208284031215611813578081fd5b81356116b281611ae2565b60006020828403121561182f578081fd5b81516116b281611ae2565b60006020828403121561184b578081fd5b813567ffffffffffffffff811115611861578182fd5b8201601f81018413611871578182fd5b610e0e84823560208401611606565b600060208284031215611891578081fd5b5035919050565b600081518084526118b0816020860160208601611a4f565b601f01601f19169290920160200192915050565b600082516118d6818460208701611a4f565b9190910192915050565b6001600160a01b038581168252841660208201526040810183905260806060820181905260009061191390830184611898565b9695505050505050565b6020808252825182820181905260009190848201906040850190845b8181101561195e5783516001600160a01b031683529284019291840191600101611939565b50909695505050505050565b6020815260006116b26020830184611898565b60208082526032908201527f4552433732313a207472616e7366657220746f206e6f6e20455243373231526560408201527131b2b4bb32b91034b6b83632b6b2b73a32b960711b606082015260800190565b60208082526031908201527f4552433732313a207472616e736665722063616c6c6572206973206e6f74206f6040820152701ddb995c881b9bdc88185c1c1c9bdd9959607a1b606082015260800190565b60008219821115611a3357611a33611ab6565b500190565b600082821015611a4a57611a4a611ab6565b500390565b60005b83811015611a6a578181015183820152602001611a52565b83811115610b695750506000910152565b600181811c90821680611a8f57607f821691505b60208210811415611ab057634e487b7160e01b600052602260045260246000fd5b50919050565b634e487b7160e01b600052601160045260246000fd5b634e487b7160e01b600052604160045260246000fd5b6001600160e01b031981168114611af857600080fd5b5056fea264697066735822122027c57d385fa19a68006f8f6a4c03fe3eae73baf560f8580535e467c40e768c9264736f6c63430008040033",
  "linkReferences": {},
  "deployedLinkReferences": {}
}